:020000040800F2
:1000000000000220853700084D3600084F360008F2
:10001000513600085336000855360008000000002D
:10002000000000000000000000000000573600083B
:1000300059360008000000005B3600085D360008F5
:10004000D5370008D5370008D5370008D537000860
:10005000D5370008D5370008D5370008D537000850
:10006000D5370008D5370008D5370008D537000840
:10007000D5370008D5370008D5370008D537000830
:10008000D537000865360008D5370008D537000891
:10009000D5370008D5370008D5370008D537000810
:1000A000D5370008D5370008D5370008D537000800
:1000B000D5370008D5370008D5370008D5370008F0
:1000C000D5370008D5370008D5370008D5370008E0
:1000D000D53700087536000885360008D537000882
:1000E000D5370008D5370008D5370008D5370008C0
:1000F000D5370008D5370008D5370008D5370008B0
:10010000D5370008D5370008D5370008D53700089F
:10011000D5370008D537000895360008D5370008D0
:10012000D5370008D5370008D5370008D53700087F
:10013000D53700080000000000000000D537000897
:10014000D5370008D5370008D5370008D53700085F
:10015000D5370008D5370008D5370008D53700084F
:10016000D5370008D5370008D5370008D53700083F
:10017000D5370008D5370008D53700080000000043
:1001800000000000D537000800000000000000005B
:10019000D53700080000000000000000D537000837
:1001A000000000000000000000000000D53700083B
:1001B000D5370008D5370008D5370008D5370008EF
:0401C000D537000827
:1001D00010B5054C237833B9044B13B10448AFF381
:1001E00000800123237010BDDC010020000000000E
:1001F000804C000808B5034B1BB103490348AFF31B
:10020000008008BD00000000E0010020804C0008D4
:1002100001F0FF01102A2BDB10F0070F08D010F8B7
:10022000013B013A8B422DD010F0070F42B3F6D1BB
:10023000F0B441EA012141EA014122F007047FF0D4
:1002400000070023F0E80256083C85EA010586EA2B
:10025000010685FA47F5A3FA87F586FA47F6A5FA67
:1002600087F68EB9EED1F0BC01F0FF0102F0070273
:1002700032B110F8013B013A83EA010313B1F8D11E
:100280000020704701387047002D06BF35460338FF
:10029000073815F0010F07D1013015F4807F02BF38
:1002A000013015F4C03F0130F0BC0138704700BF89
:1002B00053B94AB9002908BF00281CBF4FF0FF31CD
:1002C0004FF0FF3000F072B9ADF1080C6DE904CECB
:1002D00000F006F8DDF804E0DDE9022304B0704721
:1002E0002DE9F047089E04468846002B4BD18A42F0
:1002F000154667D9B2FA82F24AB1C2F1200701FA73
:1003000002F320FA07F7954047EA030894404FEAC2
:10031000154E230CB8FBFEF71FFA85FC0EFB178861
:1003200043EA084307FB0CF1994209D9EB1807F19E
:10033000FF3080F01B81994240F21881023F2B442C
:100340005B1AA4B2B3FBFEF00EFB103344EA034485
:1003500000FB0CFCA44509D92C1900F1FF3380F0F7
:100360000781A44540F2048102382C4440EA07404A
:10037000A4EB0C0400271EB1D4400023C6E90043BF
:100380003946BDE8F0878B4209D9002E00F0EB809A
:100390000027C6E9000138463946BDE8F087B3FAC0
:1003A00083F7002F47D18B4202D3824200F2FA80BA
:1003B000841A61EB030301209846002EE0D0C6E9C1
:1003C0000048DDE702B9FFDEB2FA82F2002A40F00F
:1003D0008F80491B4FEA154E1FFA85F80127B1FBA4
:1003E000FEFC230C0EFB1C1143EA014308FB0CF13D
:1003F000994207D9EB180CF1FF3002D2994200F272
:10040000CD808446591AA3B2B1FBFEF00EFB101446
:1004100043EA044408FB00F8A04507D92C1900F171
:10042000FF3302D2A04500F2B6801846A4EB0804C0
:1004300040EA0C409FE7C7F1200CBB4022FA0CFEBB
:100440004EEA030E01FA07F420FA0CF521FA0CF338
:100450004FEA1E482543B3FBF8F92C0C08FB19336F
:100460001FFA8EFA44EA034309FB0AF49C4202FA9B
:1004700007F200FA07F10BD91EEB030309F1FF3075
:1004800080F087809C4240F28480A9F10209734485
:100490001B1BADB2B3FBF8F008FB103345EA034475
:1004A00000FB0AFAA24508D91EEB040400F1FF3351
:1004B0006BD2A24569D90238744440EA0940A0FBD6
:1004C0000289A4EB0A044C45C2464B4654D351D092
:1004D000002E69D0B1EB0A0564EB030404FA0CFCAE
:1004E000FD40FC404CEA0505C6E90054002747E7FB
:1004F000C2F1200320FA03F7954001FA02F021FA35
:1005000003F34FEA154E3843010CB3FBFEF71FFA15
:1005100085F80EFB173341EA034107FB08F38B42D2
:1005200004FA02F407D9691807F1FF3C2FD28B4275
:100530002DD9023F2944CB1A81B2B3FBFEF00EFB4A
:10054000103341EA034100FB08F38B4207D96918D5
:1005500000F1FF3C17D28B4215D902382944C91A41
:1005600040EA07473BE73746304609E70746E7E6F4
:100570001846FBE64145ABD2B8EB020A69EB0E0226
:1005800001381346A4E76046E9E7184695E7674651
:10059000D1E781467CE702382C4447E7ACF1020CF6
:1005A0002B442FE7384608E73746E9E6704700BF97
:1005B00010B504460E4B18784FF47A73B3FBF0F382
:1005C0000C4A1068B0FBF3F000F0AAF868B90F2CE1
:1005D00001D901200AE0002221464FF0FF3000F04F
:1005E0005DF8034B5C60002000E0012010BD00BFFF
:1005F000000000200800002008B50B4B1A6842F4E8
:1006000000721A601A6842F480621A601A6842F432
:1006100080721A60032000F02FF80020FFF7C8FF57
:1006200002F0AEFE002008BD003C0240034A116803
:10063000034B1B780B441360704700BF0802002077
:1006400000000020014B1868704700BF080200201E
:1006500038B50446FFF7F6FF0546B4F1FF3F02D078
:10066000044B1B781C44FFF7EDFF401BA042FAD35C
:1006700038BD00BF00000020074AD36823F4E063C0
:100680001B041B0C000200F4E060184340F0BF6044
:1006900040F40030D060704700ED00E030B4174BFC
:1006A000DB68C3F30223C3F10704042C28BF04242E
:1006B0001D1D062D18D9033B4FF0FF3505FA04F434
:1006C00021EA0401994005FA03F322EA03031943DE
:1006D00000280BDB0901C9B200F1604000F5614060
:1006E00080F8001330BC70470023E5E700F00F00EE
:1006F0000901C9B2024B1954F4E700BF00ED00E054
:1007000014ED00E0002807DB00F01F024009012380
:100710009340024A42F82030704700BF00E100E0F9
:100720000138B0F1807F0AD2064B5860064AF021AA
:1007300082F823100020986007221A607047012079
:10074000704700BF10E000E000ED00E00268D3B2A7
:10075000103B0B49A1FB03131B090A49C95CC16586
:10076000032B06D822F47F7222F003028265806D8B
:10077000704722F47F7222F0030204328265F6E7AA
:10078000ABAAAAAA984C0008836A826992B9012B85
:100790000AD01BB1022B01D000207047C36A13F0AE
:1007A000807F2CD100207047C36AB3F1C07F28D06E
:1007B00000207047B2F5005F05D0022B29D9032B2A
:1007C00015D000207047032B03D8DFE803F01C048A
:1007D0001C0A00207047C36A13F0807F15D10020E7
:1007E0007047C36AB3F1C07F11D000207047C36A5D
:1007F00013F0807F01D00120704700207047012056
:100800007047012070470120704701207047012088
:10081000704701207047000070B50446FFF712FFD3
:10082000002C5BD00546002384F83430022384F882
:1008300035302268136823F00103136023681A68B7
:1008400012F0010F0AD0FFF7FDFE401B0528F5D975
:1008500020236365032084F8350070BD1A682048A2
:1008600010406168A2680A43E1680A4321690A43AB
:1008700061690A43A1690A43E1690A43216A0A439B
:100880000243616A04291ED01A602668756925F042
:100890000705636A1D43042B07D1A36A1D43E36A5E
:1008A0001BB12046FFF770FF90B975612046FFF736
:1008B0004DFFE26D3F23934083600020606501237C
:1008C00084F83530C9E7E16A206B01430A43DBE76E
:1008D00040236365012084F83500BEE70120BCE7B2
:1008E0003F8010F090F83530DBB2022B03D080232C
:1008F000436501207047052380F83530026813688E
:1009000023F001031360002070470000F0B583B0AE
:10091000044600230193724B1D68724BA3FB0535FF
:10092000AD0A876D3E68C26D08239340334210D0F4
:1009300003681A6812F0040F0BD01A6822F0040240
:100940001A60C26D08239340BB60436D43F00103FE
:100950004365E26D01239340334209D02268526916
:1009600012F0800F04D0BB60636D43F00203636537
:10097000E26D04239340334209D02268126812F0DA
:10098000020F04D0BB60636D43F004036365E26D46
:1009900010239340334224D02268126812F0080FCB
:1009A0001FD0BB6023681A6812F4802F0DD01B681B
:1009B00013F4002F04D1236C9BB12046984710E01C
:1009C000A36C73B1204698470BE01A6812F4807F3D
:1009D00003D11A6822F008021A60236C0BB120467A
:1009E0009847E26D20239340334255D02268126825
:1009F00012F0100F50D0BB6094F83530DBB2052BED
:100A00000ED023681A6812F4802F33D01B6813F4B9
:100A1000002F2AD1636C002B3ED0204698473BE044
:100A20002268136823F0160313602268536923F0C9
:100A300080035361236CA3B12268136823F0080379
:100A40001360E26D3F239340BB60002384F8343091
:100A5000012384F83530236D002B3FD02046984782
:100A60003CE0A36C002BE7D1EBE7E36BA3B120469E
:100A7000984711E01A6812F4807F09D11A6822F0B1
:100A800010021A60002384F83430012384F83530D2
:100A9000E36B0BB120469847636DFBB1636D13F0B8
:100AA000010F17D0052384F835302268136823F02E
:100AB00001031360019B01330193AB4204D8236807
:100AC0001B6813F0010FF5D1002384F834300123A3
:100AD00084F83530E36C0BB12046984703B0F0BD85
:100AE00008000020B5814E1B00230F2B00F2D1809F
:100AF000F0B482B039E0062200E00022B2403A436E
:100B00000234644E46F82420634A1468EA4302EA39
:100B100004064F6817F4803F01D045EA04065E4C96
:100B20002660646802EA04064F6817F4003F01D0AB
:100B300045EA0406584C6660A46802EA04064F6859
:100B400017F4801F01D045EA0406534CA660E46800
:100B500022404E6816F4001F01D045EA04024E4CB4
:100B6000E26001330F2B00F2918001229A400C6861
:100B700004EA0205AA42F4D14C68022C01D0122CDE
:100B800010D1DE08083650F826C003F00704A7008D
:100B90000F24BC402CEA040C0C69BC4044EA0C0451
:100BA00040F8264004685F000326BE40F64306EA8C
:100BB000040C4C6804F00304BC4044EA0C040460D8
:100BC0004C6804F1FF3CBCF1010F03D9112C01D09A
:100BD000122C10D1846806EA040CCC68BC4044EAAC
:100BE0000C048460446824EA02024C68C4F30014D4
:100BF0009C4014434460C26816408A68BA4032433D
:100C0000C2604A6812F0805FABD000220192234A92
:100C1000546C44F480445464526C02F48042019257
:100C2000019A9C08A61C1B4A52F8267003F0030286
:100C300096000F22B24027EA0207194A90423FF479
:100C40005CAF02F58062904216D002F5806290425D
:100C500014D002F58062904212D002F58062904278
:100C600010D002F5806290420ED002F58062904270
:100C70003FF441AF072241E701223FE702223DE76F
:100C800003223BE7042239E7052237E702B0F0BC34
:100C90007047704700380140003C01400038024076
:100CA000000002400369194201D100207047012071
:100CB000704712B9090481617047816170474369C7
:100CC00031EA030301D081617047090481617047F3
:100CD00003685A6912F4806F11D06FF480625A6110
:100CE00000230363202280F83D2080F83E30026C10
:100CF00042F00402026480F83C300120704700207A
:100D00007047F8B506460C4617461D4622E0FFF729
:100D100099FC069BC01AA84200D8DDB900233363B2
:100D2000202286F83D2086F83E30326C42F02002C8
:100D3000326486F83C3001201AE033685B6924EAAB
:100D400003039BB2B3FA83F35B099F420FD1B5F162
:100D5000FF3FDCD1C4F30743012BEED033689B691E
:100D600024EA03039BB2B3FA83F35B09EDE70020A7
:100D7000F8BDF8B504460D4616461F463CE01A6815
:100D800042F400721A6023686FF480625A61002393
:100D90002363202284F83D2084F83E30226C42F008
:100DA0000402226484F83C30012033E0FFF74AFC5F
:100DB000C01BB04200D8FEB900232363202284F870
:100DC0003D2084F83E30226C42F02002226484F8F8
:100DD0003C3001201EE023685B6925EA03039BB2D7
:100DE000003318BF0123A3B123685A6912F4806F3E
:100DF000C5D1B6F1FF3FD9D1C5F30743012BEAD0E6
:100E000023689B6925EA03039BB2003318BF0123C3
:100E1000E9E70020F8BD70B504460D461646236884
:100E20005B6913F0800F1CD12046FFF751FFD0B94A
:100E3000B5F1FF3FF3D0FFF705FC801BA84201D8B6
:100E4000002DECD100232363202284F83D2084F878
:100E50003E30226C42F02002226484F83C300120B3
:100E600000E0002070BD0120FCE700002DE9F0410A
:100E700084B00446884616461F460B9D02681368D8
:100E800043F48073136000950A9B00224FF0011118
:100E9000FFF737FF20B10123184604B0BDE8F08109
:100EA000226808F0FE0313612B460A9A2049204667
:100EB000FFF75FFF08B10123EEE7002303932368E8
:100EC0005A6903929B690393039B2A460A99204619
:100ED000FFF7A1FF034658B1236C042B01D0012377
:100EE000DAE72268136843F4007313600123D3E741
:100EF000012F0ED02368320A1A612A460A99204629
:100F0000FFF789FF034678B1236C042B05D001233A
:100F1000C2E72268F6B21661BEE72268136843F49E
:100F2000007313600123B7E72268F6B21661B3E7D6
:100F3000020001002DE9F04184B004460E46174638
:100F400098460B9D0268136843F48063136002683F
:100F5000136843F48073136000950A9B00224FF0DE
:100F60000111FFF7CEFE20B10123184604B0BDE801
:100F7000F081F6B2236806F0FE021A612B460A9A47
:100F800038492046FFF7F5FE08B10123EDE70023BD
:100F9000039323685A6903929B690393039B2A4630
:100FA0000A992046FFF737FF58B1236C042B01D074
:100FB0000123DAE72268136843F400731360012306
:100FC000D3E7B8F1010F0DD12368FFB21F612A46A4
:100FD0000A992046FFF71FFF20B3236C042B1AD079
:100FE0000123C2E723683A0A1A612A460A99204671
:100FF000FFF711FF58B1236C042B01D00123B4E794
:101000002268136843F4007313600123ADE723687B
:10101000FFB21F61DBE72268136843F400731360BB
:101020000123A2E72268136843F4807313600095DC
:101030000A9B00224FF001112046FFF762FE08B123
:10104000012392E7236846F001061E612B460A9AA7
:1010500004492046FFF78DFE0346002885D0012372
:1010600083E700BF0200010070B504460D46164636
:1010700023685B6913F0040F1CD12046FFF728FE9C
:10108000D0B9B5F1FF3FF3D0FFF7DCFA801BA842DF
:1010900001D8002DECD100232363202284F83D20C9
:1010A00084F83E30226C42F02002226484F83C3006
:1010B000012000E0002070BD0120FCE770B505466E
:1010C0000C4616462B685A6912F0400F29D15A690E
:1010D00012F0100F15D1FFF7B5FA801BA04201D80E
:1010E000002CEFD100232B63202285F83D2085F8CA
:1010F0003E302A6C42F020022A6485F83C30012000
:1011000070BD6FF010025A6100232B63202285F816
:101110003D2085F83E302A6C2A6485F83C30012059
:10112000EEE70020ECE70000002800F0BE80F8B5F4
:10113000044690F83D30002B6BD0242384F83D30DA
:101140002268136823F00103136000F0CBFB626890
:10115000584B9A4262D8584B98428CBF00230123C7
:10116000002B40F0A480554BA3FB00239B0C21686F
:101170004A6822F03F021A434A6025682A6A22F030
:101180003F0266684B498E424ED8013313432B62AF
:101190002568E96921F44F4121F0FF016368454A60
:1011A00093424BD801385B00B0FBF3F30133C3F338
:1011B0000B03042B38BF04230B43EB6121680B683E
:1011C00023F0C003E269206A024313430B602168E5
:1011D0008B6823F4034323F0FF032269E068024392
:1011E00013438B602168CB6823F0FF036269A06919
:1011F00002431343CB602268136843F0010313607A
:1012000000202064202384F83D30206384F83E00D1
:10121000F8BD80F83C3002F0CFF88EE7284B9842BA
:101220008CBF002301239BE74FF4967101FB03F36E
:101230002449A1FB03139B090133A7E7A268BAB9AC
:10124000461E03EB4307B6FBF7F60136C6F30B0663
:10125000B6FA86F6760936BBC2B9013803EB43030A
:10126000B0FBF3F30133C3F30B0242F40043A3E7F3
:10127000461E03EB830707EB8707B6FBF7F601363D
:10128000C6F30B06B6FA86F67609E4E7013803EBF7
:10129000830303EB8303B0FBF3F20132C2F30B02CF
:1012A00042F4404388E7012386E70120704701208C
:1012B000AEE700BFA08601007F841E0083DE1B43D3
:1012C000FF083D00D34D62102DE9F04182B0044685
:1012D0000E4617469846FFF7B5F994F83D30DBB255
:1012E000202B04D00223184602B0BDE8F081054649
:1012F0000090192301224C492046FFF702FD0028E7
:1013000040F08B8094F83C30012B00F08880012362
:1013100084F83C3023681A6812F0010F03D11A6870
:1013200042F001021A602268136823F4006313601C
:10133000212384F83D30402384F83E300023236489
:10134000089B6362BDF824306385638D2385374B2A
:10135000E36201950A9B009343463A463146204694
:10136000FFF784FD00285CD1238D002B34D02A4662
:101370000A992046FFF74FFD10BB626A2368127876
:101380001A61616A4B1C6362238D013B9BB223850A
:10139000628D013A92B262852268506910F0040FA2
:1013A000E2D0002BE0D04B781361636A01336362B3
:1013B000238D013B2385638D013B9BB26385D3E77E
:1013C000236C042B01D001238DE72268136843F4BA
:1013D00000731360012386E72A460A992046FFF727
:1013E00043FE034658B1236C042B01D001237AE756
:1013F0002268136843F400731360012373E72168C4
:101400000A6842F400720A60202284F83D2000221B
:1014100084F83E2084F83C2065E7022363E702233A
:1014200061E701235FE700BF020010000000FFFF3B
:101430002DE9F04186B004460E4617469846FFF760
:1014400001F994F83D30DBB2202B04D0022630465F
:1014500006B0BDE8F08105460090192301229E499F
:101460002046FFF74EFC002840F0348194F83C30D1
:10147000012B00F03781012384F83C3023681A687F
:1014800012F0010F03D11A6842F001021A602268BB
:10149000136823F400631360222384F83D30402353
:1014A00084F83E30002323640C9B6362BDF8343023
:1014B0006385638D2385894BE36201950E9B0093C1
:1014C00043463A4631462046FFF734FD064600289B
:1014D00040F00A81238D5BB9029323685A69029216
:1014E0009A690292029A1A6842F400721A6072E0D3
:1014F000012B0AD0022B1AD00023059323685A69C6
:1015000005929B690593059B65E02268136823F4A7
:10151000806313600023039323685A6903929A69D6
:101520000392039A1A6842F400721A6053E0226828
:10153000136823F4806313602268136843F4006324
:1015400013600023049323685A6904929B690493EF
:10155000049B40E02A460E992046FFF7AFFD002885
:1015600040F0C48023681A69636A1A70636A0133A1
:101570006362238D013B2385638D013B9BB26385B1
:1015800029E000950E9B002255492046FFF7B9FB44
:10159000002840F0AD802268136843F400731360A4
:1015A00023681A69636A1A70626A531C6362238D26
:1015B000013B2385638D013B9BB2638523681B69D7
:1015C0005370636A01336362238D013B2385638D0E
:1015D000013B9BB26385238D002B72D0032B49D82E
:1015E000012BB7D0022BCCD000950E9B00223C499A
:1015F0002046FFF786FB00287CD12268136823F47D
:101600008063136023681A69636A1A70636A01331E
:101610006362238D013B2385638D013B9BB2638510
:1016200000950E9B00222E492046FFF76AFB0028FA
:1016300062D12268136843F40073136023681A6947
:10164000636A1A70626A531C6362238D013B2385AF
:10165000638D013B9BB2638523681B695370636A8A
:1016600001336362238D013B2385638D013B9BB274
:101670006385B0E72A460E992046FFF71FFD002834
:101680003CD123681A69636A1A70626A531C6362E8
:10169000238D013B2385638D013B9BB263852368CA
:1016A000596911F0040F96D01B695370636A0133B6
:1016B0006362238D013B2385638D013B9BB2638570
:1016C00089E7202384F83D30002384F83E3084F8F5
:1016D0003C30BCE60226BAE6020010000000FFFF24
:1016E000040001000226B2E60126B0E60126AEE6BD
:1016F0000126ACE60126AAE60126A8E60126A6E612
:1017000010B582B000230193194B1A6C42F080523D
:101710001A641B6C03F080530193019B154B01224B
:101720001A60FEF78FFF0446134B5B6813F4803F8B
:1017300008D1FEF787FF001BB0F57A7FF4D90320AC
:1017400002B010BD0D4B01221A60FEF77BFF04466C
:10175000094B5B6813F4003F07D1FEF773FF001BD2
:10176000B0F57A7FF4D90320EAE70020E8E700BF6C
:101770000038024040000E420070004044000E421B
:10178000002800F09D8070B504464F4B1B6803F0A5
:101790000F038B4209D2CBB24B4A1370136803F08C
:1017A0000F038B4201D0012070BD236813F0020F9C
:1017B00017D013F0040F04D0444A936843F4E05365
:1017C0009360236813F0080F04D0404A936843F4F1
:1017D000604393603D4A936823F0F003A06803439D
:1017E00093600D46236813F0010F32D06368012B1C
:1017F00021D09A1E012A25D9344A126812F0020F0C
:1018000060D032498A6822F0030213438B60FEF7EE
:1018100019FF06462D4B9B6803F00C036268B3EB7F
:10182000820F16D0FEF70EFF801B41F288339842DC
:10183000F0D90320B8E7254A126812F4003FE0D13E
:101840000120B1E7214A126812F0007FD9D10120AE
:10185000AAE71D4B1B6803F00F03AB4209D9EAB29C
:10186000194B1A701B6803F00F03AB4201D0012023
:101870009AE7236813F0040F06D0144A936823F400
:10188000E053E1680B439360236813F0080F07D01F
:101890000E4A936823F46043216943EAC1039360CD
:1018A00000F040F8094B9B68C3F30313084AD35C6C
:1018B000D840084B18600020FEF77AFE002073E73E
:1018C0000120704701206FE7003C024000380240D1
:1018D000B84F000808000020014B1868704700BF8F
:1018E0000800002008B5FFF7F7FF044B9B68C3F31F
:1018F0008223034AD35CD84008BD00BF00380240B1
:10190000C84F000808B5FFF7E7FF044B9B68C3F317
:101910004233034AD35CD84008BD00BF00380240C0
:10192000C84F00082DE9F04B444B9B6803F00C03B3
:10193000082B06D00C2B42D0042B7CD04048BDE8AD
:10194000F08B3E4B5A6802F03F025B6813F4800F45
:1019500012D03A4B5968C1F3881100233948A1FBD2
:101960000001FEF7A5FC354B5B68C3F3014301336F
:101970005B00B0FBF3F0E2E7304B5B68C3F3881326
:101980001E4600275C010025E41A65EB0705A90146
:1019900041EA9461A001001B61EB0501CB0043EA21
:1019A0005073C400A01943EB07018B0243EA905324
:1019B0008402204619460023FEF77AFCD3E71F4B2A
:1019C0005A6802F03F025B6813F4800F10D01B4B83
:1019D0005968C1F3881100231A48A1FB0001FEF7E2
:1019E00067FC164B5B68C3F30273B0FBF3F0A6E72A
:1019F000124B5B68C3F388131E4600275C01002569
:101A0000E41A65EB0705A90141EA9461A001001BF6
:101A100061EB0501CB0043EA5073C400A01943EB0E
:101A200007018B0243EA90538402204619460023A3
:101A3000FEF73EFCD5E7034881E700BF00380240CF
:101A40000024F40040787D0170B582B0044603683C
:101A500013F0010F41D0A64B9B6803F00C03042B3D
:101A600032D0A34B9B6803F00C03082B27D0A04B6C
:101A70009B6803F00C030C2B59D06368B3F5803FCF
:101A80005BD0B3F5A02F5ED0994B1A6822F4803258
:101A90001A601A6822F480221A606368002B5CD0F6
:101AA000FEF7D0FD0546924B1B6813F4003F14D19E
:101AB000FEF7C8FD401B6428F5D903209DE18C4B3F
:101AC0005B6813F4800FD2D0894B1B6813F4003F7E
:101AD00003D06368002B00F08D81236813F0020FA0
:101AE00067D0834B9B6813F00C0F4AD0804B9B68E8
:101AF00003F00C03082B3FD07D4B9B6803F00C03D5
:101B00000C2B48D0E368002B74D07A4B01221A606A
:101B1000FEF798FD0546764B1B6813F0020F60D167
:101B2000FEF790FD401B0228F5D9032065E1704BBC
:101B30005B6813F4800FA0D0C6E76D4A136843F4C6
:101B400080331360A9E76A4B1A6842F480221A6056
:101B50001A6842F480321A609FE7FEF773FD05466B
:101B6000634B1B6813F4003FB7D0FEF76BFD401BBF
:101B70006428F5D9032040E15D4B5B6813F4800FC6
:101B8000BAD15B4B1B6813F0020F0AD0E368012B3C
:101B900007D0012031E1564B5B6813F4800FB1D1BF
:101BA000EFE7534A136823F0F803216943EAC103BE
:101BB0001360236813F0080F40D0636963B34E4B82
:101BC00001221A60FEF73EFD0546494B5B6F13F09C
:101BD000020F33D1FEF736FD401B0228F5D9032052
:101BE0000BE1434A136823F0F803216943EAC10378
:101BF0001360DEE73F4B00221A60FEF723FD054627
:101C00003B4B1B6813F0020FD3D0FEF71BFD401BAC
:101C10000228F5D90320F0E0374B00221A60FEF7C6
:101C200011FD0546324B5B6F13F0020F06D0FEF735
:101C300009FD401B0228F5D90320DEE0236813F0DC
:101C4000040F79D02A4B1B6C13F0805F33D1002333
:101C50000193274B1A6C42F080521A641B6C03F0FC
:101C600080530193019B0125244B1B6813F4807F53
:101C700023D0A368012B34D0052B41D01C4B1A6F05
:101C800022F001021A671A6F22F004021A67A36891
:101C9000002B3FD0FEF7D6FC0646154B1B6F13F00A
:101CA000020F48D1FEF7CEFC801B41F288339842E8
:101CB000F3D90320A1E00025D6E7104A136843F4C6
:101CC00080731360FEF7BEFC06460C4B1B6813F4D2
:101CD000807FCED1FEF7B6FC801B0228F5D9032009
:101CE0008BE0034A136F43F001031367CFE700BF94
:101CF0000038024000004742800E4742007000401A
:101D0000404B1A6F42F004021A671A6F42F0010248
:101D10001A67BCE7FEF796FC06463A4B1B6F13F0BA
:101D2000020F08D0FEF78EFC801B41F288339842E8
:101D3000F3D9032061E0E5B9A369002B5CD0314AF7
:101D4000926802F00C02082A59D0022B17D02E4BB1
:101D500000221A60FEF776FC04462A4B1B6813F03B
:101D6000007F45D0FEF76EFC001B0228F5D903204A
:101D700043E0244A136C23F080531364DCE7224BC6
:101D800000221A60FEF75EFC05461E4B1B6813F02E
:101D9000007F06D0FEF756FC401B0228F5D9032031
:101DA0002BE0E369226A1343626A43EA8213A26A60
:101DB0005208013A43EA0243E26A43EA0263226BB1
:101DC00043EA02730F4A53600F4B01221A60FEF779
:101DD00039FC04460B4B1B6813F0007F06D1FEF75D
:101DE00031FC001B0228F5D9032006E0002004E0A6
:101DF000002002E0012000E0002002B070BD0120C0
:101E0000FBE700BF003802406000474230B4036A7D
:101E100023F001030362056A4268846924F07304B5
:101E20000B681C4325F002058B682B43104DA8421C
:101E300003D005F58065A84205D123F00803CD68DD
:101E40002B4323F004030A4DA84203D005F5806517
:101E5000A84205D122F440724D6915438A692A438C
:101E6000426084614A684263036230BC704700BFCD
:101E70000000014030B4036A23F480730362036AF4
:101E80004268C46924F073040D682C4323F4007382
:101E90008D6843EA0523124DA84203D005F58065FD
:101EA000A84206D123F40063CD6843EA052323F456
:101EB00080630B4DA84203D005F58065A84207D189
:101EC00022F440524D6942EA05128D6942EA051238
:101ED0004260C4614A68C263036230BC704700BF9D
:101EE0000000014030B4036A23F480530362036AA4
:101EF0004468C26922F4E6420D6842EA052223F4EE
:101F000000538D6843EA0533094DA84203D005F517
:101F10008065A84204D124F480444D6944EA8514C4
:101F20004460C2614A680264036230BC704700BF0B
:101F30000000014010B4036A046A24F00104046242
:101F4000846924F0F00444EA021223F00A030B43EC
:101F5000826103625DF8044B704710B4036A23F09A
:101F6000100303628469036A24F4704444EA023271
:101F700023F0A00343EA0113826103625DF8044B7E
:101F80007047836823F07003194341F007018160B3
:101F90007047022380F83D300268936803F007031E
:101FA000062B03D0136843F001031360012380F86C
:101FB0003D3000207047704770477047704770474A
:101FC000704710B5044603681A6912F0020F11D069
:101FD000DA6812F0020F0DD06FF002021A610123CD
:101FE000037703689B6913F0030F70D0FFF7E6FFD8
:101FF0000023237723681A6912F0040F12D0DA68DD
:1020000012F0040F0ED06FF004021A61022323773E
:1020100023689B6913F4407F5FD02046FFF7CEFF13
:102020000023237723681A6912F0080F12D0DA68A8
:1020300012F0080F0ED06FF008021A610423237704
:102040002368DB6913F0030F4ED02046FFF7B6FF7D
:102050000023237723681A6912F0100F12D0DA6870
:1020600012F0100F0ED06FF010021A6108232377C0
:102070002368DB6913F4407F3DD02046FFF79EFFC5
:102080000023237723681A6912F0010F03D0DA685E
:1020900012F0010F36D123681A6912F0800F03D0B5
:1020A000DA6812F0800F34D123681A6912F0400FF9
:1020B00003D0DA6812F0400F32D123681A6912F0A7
:1020C000200F03D0DA6812F0200F30D110BDFFF7D7
:1020D00074FF2046FFF773FF8AE72046FFF76DFF86
:1020E0002046FFF76CFF9BE72046FFF766FF204680
:1020F000FFF765FFACE72046FFF75FFF2046FFF7DD
:102100005EFFBDE76FF001021A612046FFF754FF42
:10211000C1E76FF080021A61204600F019FAC3E7A8
:102120006FF040021A612046FFF74AFFC5E76FF0E3
:1021300020021A61204600F00AFAC7E70368304A15
:10214000904212D0B0F1804F0FD0A2F57C42904265
:102150000BD002F58062904207D002F58062904277
:1021600003D002F57842904203D123F070034A680D
:102170001343234A90422AD0B0F1804F27D0A2F5D2
:102180007C42904223D002F5806290421FD002F53B
:10219000806290421BD002F57842904217D002F53F
:1021A0007052904213D002F5806290420FD002F537
:1021B000806290420BD0A2F59832904207D002F58F
:1021C0008062904203D002F58062904203D123F4F2
:1021D0004073CA68134323F080034A6913430360C2
:1021E0008B68C3620B688362054B984203D003F58A
:1021F0008063984201D10B690363012343617047F7
:1022000000000140A8B110B5044690F83D305BB124
:10221000022384F83D30211D2068FFF78FFF012342
:1022200084F83D30002010BD80F83C3001F01EF9EC
:10223000EEE701207047A8B110B5044690F83D3094
:102240005BB1022384F83D30211D2068FFF776FF43
:10225000012384F83D30002010BD80F83C30FFF7AA
:10226000AAFEEEE70120704730B4036A23F01003A2
:102270000362036A4468826922F4E6420D6842EA16
:10228000052223F020038D6843EA0513114DA8426F
:1022900003D005F58065A84206D123F08003CD6800
:1022A00043EA051323F040030A4DA84203D005F585
:1022B0008065A84207D124F440644D6944EA85044E
:1022C0008D6944EA8504446082614A6882630362DE
:1022D00030BC70470000014038B590F83C30012B0D
:1022E00066D00D460446012380F83C30022380F876
:1022F0003D300C2A1AD8DFE802F007191919201905
:1023000019193419191947000068FFF77FFD226871
:10231000936943F0080393612268936923F00403EF
:1023200093612268936929690B439361012384F8BF
:102330003D30002084F83C0038BD0068FFF794FF72
:102340002268936943F4006393612268936923F4DC
:102350008063936122689369296943EA0123936149
:10236000E4E70068FFF786FD2268D36943F00803BD
:10237000D3612268D36923F00403D3612268D3694F
:1023800029690B43D361D1E70068FFF7ABFD2268F1
:10239000D36943F40063D3612268D36923F4806373
:1023A000D3612268D369296943EA0123D361BDE778
:1023B0000220C1E710B4846824F47F4442EA032376
:1023C0000B43234383605DF8044B704790F83C3027
:1023D000012B66D010B50446012380F83C3002235F
:1023E00080F83D300268936823F47F4323F077033D
:1023F00093600B68402B4AD013D9602B3DD01ED977
:10240000702B28D0B3F5005F30D1CB684A6889685B
:102410000068FFF7CFFF2268936843F4804393601E
:1024200024E0102B06D004D9202B03D0302B01D070
:102430001CE0DBB919462068FFF7A3FD16E0502B1E
:1024400014D1CA6849680068FFF774FD50212068FC
:10245000FFF797FD0AE0CB684A6889680068FFF7D4
:10246000A9FF2268936843F077039360012384F8FF
:102470003D30002084F83C0010BDCA6849680068FF
:10248000FFF76BFD60212068FFF77BFDEEE7CA6870
:1024900049680068FFF74EFD40212068FFF771FD95
:1024A000E4E70220704710B401F01F01012303FA92
:1024B00001F4036A23EA04030362036A8A401343B4
:1024C00003625DF8044B704710B5044601220068B2
:1024D000FFF7E9FF23680B4A934203D002F58062BD
:1024E000934203D15A6C42F400425A6422689368C2
:1024F00003F00703062B03D0136843F001031360B6
:10250000002010BD0000014090F83C30012B1CD091
:1025100070B4012680F83C60022380F83D300268E8
:102520005568936825F070050C682C4323F08005EE
:102530004B682B4354600268936080F83D60002331
:1025400080F83C30184670BC7047022070477047D6
:1025500070470268D36823F49073D36002685369AC
:1025600023F001035361202380F83A30704790F83C
:102570003930DBB2212B2AD18368B3F5805F16D0C6
:10258000036A5A1C02621A7803685A60C38C013BC2
:102590009BB2C384EBB90268D36823F08003D36095
:1025A0000268D36843F04003D36000207047036A99
:1025B0001B880268C3F30803536003691BB9036AED
:1025C00002330362E2E7036A01330362DEE70220BB
:1025D00070470020704700002DE9F8430446026868
:1025E000136923F44053C1680B4313618368026984
:1025F000134342691343C2691A430168CB6823F449
:10260000164323F00C031343CB600268536923F491
:10261000407381690B435361C369B3F5004F60D0C8
:102620000368B84A934200F0148102F58062934235
:1026300000F00F81FFF756F900EB800000EB8000FF
:102640006568AD00B0FBF5F5AF4FA7FB05356D092B
:102650002E01FFF747F900EB800000EB8000656872
:10266000AD00B0FBF5F9FFF73DF900EB800000EBA2
:1026700080006568AD00B0FBF5F5A7FB05356D0979
:102680004FF0640808FB15952D013235A7FB053581
:102690006D0905F0F0053544FFF724F900EB8000E3
:1026A00000EB80006668B600B0FBF6F6FFF71AF99B
:1026B00000EB800000EB800063689B00B0FBF3F050
:1026C000A7FB0030400908FB10684FEA081808F122
:1026D0003208A7FB0837C7F3431723682F449F60CE
:1026E0000DE10368874A93425BD002F58062934212
:1026F00057D0FFF7F7F800EB800000EB800065682B
:102700006D00B0FBF5F5804FA7FB05356D092E0177
:10271000FFF7E8F800EB800000EB800065686D00D3
:10272000B0FBF5F9FFF7DEF800EB800000EB80006E
:1027300065686D00B0FBF5F5A7FB05356D094FF039
:10274000640808FB1595ED003235A7FB05356D09CA
:102750006D0005F4F8753544FFF7C4F800EB800010
:1027600000EB800066687600B0FBF6F6FFF7BAF87B
:1027700000EB800000EB800063685B00B0FBF3F3CC
:10278000A7FB03235B0908FB13684FEAC80808F19D
:102790003208A7FB0837C7F3421723682F449F600E
:1027A000ADE0FFF7AFF800EB800000EB800065685C
:1027B0006D00B0FBF5F5544FA7FB05356D092E01F3
:1027C000FFF7A0F800EB800000EB800065686D006B
:1027D000B0FBF5F9FFF796F800EB800000EB800006
:1027E00065686D00B0FBF5F5A7FB05356D094FF089
:1027F000640808FB1595ED003235A7FB05356D091A
:102800006D0005F4F8753544FFF77CF800EB8000A7
:1028100000EB800066687600B0FBF6F6FFF772F812
:1028200000EB800000EB800063685B00B0FBF3F31B
:10283000A7FB03235B0908FB13684FEAC80808F1EC
:102840003208A7FB0837C7F3421723682F449F605D
:1028500055E0FFF757F800EB800000EB800065685B
:10286000AD00B0FBF5F5284FA7FB05356D092E012E
:10287000FFF748F800EB800000EB80006568AD00D2
:10288000B0FBF5F9FFF73EF800EB800000EB8000AD
:102890006568AD00B0FBF5F5A7FB05356D094FF098
:1028A000640808FB15952D013235A7FB05356D0928
:1028B00005F0F0053544FFF725F800EB800000EB4C
:1028C00080006668B600B0FBF6F6FFF71BF800EB79
:1028D000800000EB800063689B00B0FBF3F0A7FB77
:1028E0000030400908FB10684FEA081808F1320868
:1028F000A7FB0837C7F3431723682F449F60BDE841
:10290000F88300BF001001401F85EB512DE9F04115
:1029100005460F4616469846069C2B681B6837EA04
:1029200003030CBF01230023B3421DD1B4F1FF3FC9
:10293000F3D02CB1FDF786FEA0EB0800A042ECD945
:102940002A68D36823F4D073D3602A68536923F0CC
:1029500001035361202385F8393085F83A3000238C
:1029600085F83830032000E00020BDE8F08158B33E
:1029700010B5044690F839300BB3242384F839306D
:102980002268D36823F40053D3602046FFF724FE67
:102990002268136923F4904313612268536923F07A
:1029A0002A0353612268D36843F40053D3600020A4
:1029B000E063202384F8393084F83A3010BD80F881
:1029C000383000F0AFFDD8E7012070472DE9F04125
:1029D00082B01E4690F83930DBB2202B55D1044628
:1029E0000D469046002955D0002A55D090F8383031
:1029F000012B53D0012380F838300023C3632123F7
:102A000080F83930FDF71EFE0746A4F82480A4F8AC
:102A1000268010E000963B46002280212046FFF7EA
:102A200075FF00283CD12B882268C3F3080353604C
:102A30002369C3B90235E38C9BB2B3B1E38C013B8C
:102A40009BB2E384A368B3F5805FE3D000963B4676
:102A5000002280212046FFF759FF18BB2A782368FF
:102A60005A600135E7E70135E5E700963B4600226D
:102A700040212046FFF74AFF0346A8B9202284F8E8
:102A80003920002284F8382000E00223184602B0E2
:102A9000BDE8F0810123F9E70123F7E70223F5E719
:102AA0000323F3E70323F1E70323EFE790F83A303A
:102AB000DBB2202B20D109B312B390F83830012BB0
:102AC00020D081628285C2850023C363222280F8E0
:102AD0003A2080F838300168CA6842F48072CA60CF
:102AE00001684A6942F001024A610168CA6842F01D
:102AF0002002CA60184670470220704701207047C4
:102B00000120704702207047704708B50168CB6804
:102B100023F04003CB60202380F83930FFF7F4FF27
:102B2000002008BD08B590F83A30DBB2222B45D121
:102B30008368B3F5805F0ED0036903BB03685A68EE
:102B4000836A591C81621A70C38D013B9BB2C38595
:102B5000F3B1002033E0826A036943B903685B681C
:102B6000C3F308031380836A02338362ECE70368CC
:102B70005B68DBB21380836A01338362E4E7036836
:102B80005B68826A511C816203F07F031370DBE78C
:102B90000268D36823F02003D3600268D36823F46B
:102BA0008073D3600268536923F0010353612023CB
:102BB00080F83A3000F046F9002000E0022008BD1D
:102BC0007047000010B5044602681368D168526966
:102BD00013F00F0005D113F0200F02D011F0200FD9
:102BE00053D1002867D012F0010202D111F4907F76
:102BF00061D013F0010F06D011F4807F03D0E06B99
:102C000040F00100E06313F0040F04D01AB1E06B50
:102C100040F00200E06313F0020F04D01AB1E06B41
:102C200040F00400E06313F0080F04D01AB1E26B27
:102C300042F00802E263E26B002A48D013F0200F52
:102C400002D011F0200F24D123685B6903F0400308
:102C5000E26B12F0080F00D13BB32046FFF779FC7E
:102C600023685A6912F0400F1BD05A6922F04002C3
:102C70005A61636B8BB11A4A1A65606BFDF732FEBD
:102C800028B3606B036D984721E02046FFF74AFFA9
:102C90001DE02046FFF746FFD6E72046FFF790FFEE
:102CA00015E02046FFF78CFF11E02046FFF788FF74
:102CB0000023E3630BE013F0800F02D011F0800FCC
:102CC00006D113F0400F02D011F0400F04D110BD17
:102CD0002046FFF74CFCFAE72046FFF716FFF6E721
:102CE000E52C000808B5806B0023C385C384FFF77B
:102CF00067FF08BDF0B589B00024039404940594DF
:102D0000069407940094254B1A6B42F004021A6350
:102D10001A6B02F004020092009A01941A6B42F0BE
:102D200001021A631A6B02F001020192019A0294E5
:102D30001A6B42F002021A631B6B03F00203029348
:102D4000029B174F224620213846FDF7B2FF154D52
:102D500022464FF400612846FDF7ABFF40F2FF73B7
:102D600003930494059403A92846FDF7BDFE202390
:102D70000393012604960594069403A93846FDF7AB
:102D8000B3FE4FF40063039304960594069403A9DD
:102D90002846FDF7A9FE09B0F0BD00BF003802408B
:102DA000000002400008024000B583B000210191FC
:102DB000094B1A6B42F400121A631B6B03F40013E5
:102DC0000193019B0A461120FDF768FC1120FDF7D5
:102DD00099FC03B05DF804FB003802402DE9F04196
:102DE00084B0002522E0144B13F815706A000132FC
:102DF0001344124E4FF06408CDF80880012401946A
:102E0000009323463A4642213046FEF75DFA2046BB
:102E1000FDF71EFCCDF808800194094B0093234672
:102E20003A4642213046FEF703FB2544C52DDADD44
:102E300004B0BDE8F08100BFA04C000818020020DB
:102E4000102F01202DE9F04F8DB0334C214633482F
:102E500000F0AEFD0A2100F0BEFCC7B22146002002
:102E600000F0A6FD0A2100F0B6FC5FFA80FB5B468D
:102E70003A462B4904A800F07BFD2A4E6423C2B2D7
:102E800004A93046FFF7A2FD1FFA87FADFF8A090E9
:102E90006425029501240194DFF89880CDF8008024
:102EA0002346524642214846FEF7C2FA98F80030BF
:102EB0003A461D4904A800F05BFD2B46C2B204A9A6
:102EC0003046FFF783FD02950194CDF800B023460C
:102ED000524642214846FEF7F7F902950194CDF893
:102EE00000802346524642214846FEF7A1FA98F850
:102EF00000303A460D4904A800F03AFD2B46C2B214
:102F000004A93046FFF762FD072204493046FFF767
:102F1000CDFD0DB0BDE8F08F445000080C0200203C
:102F2000D04F0008D02E0120E44F000800500008C8
:102F300018020020102F012000B583B002A941F82B
:102F4000040D01231A460348FFF740FD019803B022
:102F50005DF804FB942F012008B5024800F08CFCBA
:102F600008BD00BF1C50000808B50B480B4B0360A0
:102F70000B4B436000238360C3604FF480420261C7
:102F800043618361C3610362FEF7CEF800B908BDF7
:102F9000FFF7E2FFFBE700BF1802002000580040E7
:102FA000A086010008B50A480A4B03600A4B43603B
:102FB00000238360C36003610C2242618361C361AB
:102FC000FFF7D5FC00B908BDFFF7C6FFFBE700BF60
:102FD000942F01200044004040420F0000B58FB004
:102FE00000230A930B930C930D9308930993019379
:102FF00002930393049305930693079322484FF09B
:10300000804202600922426083600122C260036143
:103010008361FFF7F7F840BB0EA94FF4805341F8E6
:10302000103D1948FFF7D2F910BB1748FFF703F915
:1030300008BB00230893099308A91348FFF764FA13
:10304000E0B9702301930123029300220392042329
:1030500005930DEB03010C48FFF73EF988B90A48C8
:1030600000F036FA0FB05DF804FBFFF775FFD3E709
:10307000FFF772FFD9E7FFF76FFFDAE7FFF76CFFA3
:10308000DFE7FFF769FFEAE7542F012000B583B0BF
:103090000023009301931148114A026042F2283242
:1030A0004260836042F21072C2608361FFF7AAF847
:1030B00068B900230093019369460848FFF724FA92
:1030C00040B9084800F04CFC03B05DF804FBFFF782
:1030D00043FFEEE7FFF740FFF3E700BF142F0120A7
:1030E000001000402450000808B50A480A4B03604D
:1030F0004FF4E133436000238360C36003610C221B
:1031000042618361C361FFF732FC00B908BDFFF77C
:1031100023FFFBE7D02E01200010014000B595B041
:103120003422002107A800F09EFB002302930393A2
:103130000493059306930093234A116C41F0805148
:103140001164126C02F080520092009A01931F4A9F
:10315000116841F440411160126802F4404201924A
:10316000019A0222079201210A9110210B910D92DE
:103170000E9308230F93B42310931192129213927B
:1031800007A8FEF761FCB0B9FEF7BAFAB0B90F2391
:10319000029302230393002304934FF4A053059357
:1031A0004FF480530693052102A8FEF7E9FA40B9CF
:1031B00015B05DF804FBFFF7CFFEE5E7FFF7CCFEA7
:1031C000E5E7FFF7C9FEF3E7003802400070004072
:1031D00070B5FDF711FAFFF7A1FFFFF78BFDFFF7C1
:1031E000E3FDFFF7C1FEFFF7DDFEFFF7F7FEFFF798
:1031F0004DFFFFF779FF584C2046FEF7CAFE00212D
:103200002046FFF761F9072254495548FFF74EFC65
:103210006420FDF71DFAFFF7E1FD8EE0514B1B69BD
:1032200013F4807FFAD04F4B1B6913F4807FFAD1DF
:103230004C4B1B6913F4807FFAD04A4B1C694A4BF4
:103240001B884A48028892B2511C89B2018003EB64
:1032500083039901464B0B449C54424B1B6913F466
:10326000807FFAD14FF400713E48FDF71BFD012825
:10327000D4D03E4B00221A803B4B1B889BB2FBB143
:10328000394A138801339BB21380F02B11D84FF4C5
:1032900000713448FDF706FD20B9334B1B889BB203
:1032A000EF2BF4D94FF480612E48FDF7FBFC012889
:1032B000D8D04FF400612B48FDF701FD00262BE02C
:1032C000284C4FF400612046FDF7F9FC4FF40061F3
:1032D0002046FDF7F4FCD3E7AB002B449901244AC8
:1032E0000A44115D631CD35C1B0443EA0163A11C07
:1032F000515C43EA0123E11C515C19431D4800F075
:10330000BBFA0434A4B2B4F5A07FE5D329461A4829
:1033100000F0B2FA0136F6B2EF2E06D83546314645
:10332000164800F0A9FA0024EDE74FF400610D48BB
:10333000FDF7C5FC0C4B00221A804FF48061094850
:10334000FDF7B0FC0128F8D04FF480610548FDF787
:10335000A9FC0028F8D0A5E7542F01200C0200207A
:10336000D02E0120000802406C020020160200202E
:1033700070020020405000084850000838500008F3
:1033800082B0002100910B4B5A6C42F480425A6487
:103390005A6C02F480420092009A01911A6C42F039
:1033A00080521A641B6C03F080530193019B02B09E
:1033B000704700BF003802402DE9F04389B0002378
:1033C000039304930593069307930268234B9A4251
:1033D00002D009B0BDE8F08300250095204C236B96
:1033E00043F002032363236B03F002030093009B6B
:1033F0000195236B43F004032363236B03F0040361
:103400000193019B4FF4806303934FF01209CDF8B1
:1034100010904FF00108CDF814800327069704267A
:10342000079603A90F48FDF75FFB4FF48053039302
:10343000CDF81090CDF814800697079603A90A4896
:10344000FDF752FB0295236C43F480032364236C45
:1034500003F480030293029BBBE700BF00580040C7
:1034600000380240000402400008024000B583B06A
:103470000368B3F1804F05D0134A93420FD003B0D5
:103480005DF804FB00230093104B1A6C42F001021C
:103490001A641B6C03F001030093009BEFE700210B
:1034A00001910A4B1A6C42F010021A641B6C03F073
:1034B00010030193019B0A463620FDF7EFF83620F2
:1034C000FDF720F9DBE700BF0010004000380240A4
:1034D00000B587B0002301930293039304930593EF
:1034E0000368B3F1804F02D007B05DF804FB0023FE
:1034F00000930A4B1A6B42F001021A631B6B03F034
:1035000001030093009B0123019302220292059381
:1035100001A90348FDF7E8FAE6E700BF00380240DA
:103520000000024030B58BB000230593069307934B
:103530000893099303683F4A934205D004463E4AE4
:1035400093422FD00BB030BD002401943B4B5A6CFA
:1035500042F010025A645A6C02F010020192019A71
:1035600002941A6B42F001021A631B6B03F0010311
:103570000293029B4FF4C063059302230693012339
:103580000793032308930723099305A92C48FDF704
:10359000ABFA224621462520FDF780F82520FDF7CD
:1035A000B1F8CFE700250395244B1A6C42F40032A2
:1035B0001A641A6C02F400320392039A04951A6B8F
:1035C00042F001021A631B6B03F001030493049B96
:1035D0000C230593022306930123079303230893E7
:1035E0000723099305A91648FDF77EFA1548164BDF
:1035F00003604FF00063436040238360C5604FF475
:103600008063036145618561C56105624562FDF7BF
:1036100003F958B90B4B23639C6300221146262003
:10362000FDF73CF82620FDF76DF88BE7FFF794FCDB
:10363000F0E700BF001001400044004000380240A5
:1036400000000240702E0120A06002407047FEE79B
:10365000FEE7FEE7FEE770477047704708B5FCF7E6
:10366000E5FF08BD08B50248FDF750F908BD00BFE9
:10367000702E012008B50248FFF7A4FA08BD00BF6C
:10368000D02E012008B50248FFF79CFA08BD00BF04
:10369000942F012008B5034800F062F90248FEF7B4
:1036A00090FC08BD50500008142F012070B50D4645
:1036B0001646002404E0AFF3008028700134013581
:1036C000B442F8DB304670BD70B51646002405E004
:1036D0004D1C0878FFF730FC01342946B442F7DB73
:1036E000304670BD08B503460B4A126842B10A4A1B
:1036F000106803446A46934206D8074A136008BD1F
:10370000054A06491160F2E700F06AF80C230360ED
:103710004FF0FF30F3E700BFF8010020D82F012061
:103720004FF0FF3070474FF400534B60002070475C
:1037300001207047002070470F49D1F8883043F4CA
:103740007003C1F888300D4B1A6842F001021A600C
:10375000002098601A6822F0847222F480321A6085
:10376000074A5A601A6822F480221A60D8604FF023
:1037700000638B60704700BF00ED00E0003802403E
:1037800010300024DFF834D0002103E00C4B5B58EC
:10379000435004310B480C4B42189A42F6D30B4A63
:1037A00002E0002342F8043B094B9A42F9D3FFF7A9
:1037B000C3FF00F01BF8FFF70BFD7047000002206D
:1037C0001052000800000020DC010020DC01002075
:1037D000D82F0120FEE70A22002100F0B9B900002D
:1037E000014B1868704700BF0C00002070B50D4EEB
:1037F0000D4CA41BA4100025A54209D10B4E0C4C66
:1038000001F03EFAA41BA4100025A54205D170BD0D
:1038100056F8253098470135EEE756F82530984799
:103820000135F2E708520008085200080852000863
:103830000C520008884210B501EB020307D8421E63
:1038400099420AD011F8014B02F8014FF8E7834280
:10385000F5D98118D21AD34200D110BD13F8014D09
:1038600001F8014DF7E702440346934200D1704747
:1038700003F8011BF9E700000FB40A4B13B51C68ED
:1038800024B1A36913B9204600F028FB05AB049AC4
:10389000A1680193204600F051FE02B0BDE810403F
:1038A00004B070470C00002070B50E46054618B1F4
:1038B00083690BB900F012FBAB69AC6813B92846F9
:1038C00000F00CFB234B9C4217D16C68A3891B07AB
:1038D0001DD52369DBB1013EA36816F8011F013B2A
:1038E000A360E9B9002B2EDA22460A21284600F00F
:1038F00045F9013011D00A2011E0174B9C4201D14B
:10390000AC68E3E7154B9C4208BFEC68DEE7214654
:10391000284600F085F90028DDD04FF0FF3070BD5B
:10392000002B04DAA2699A4206DC0A2904D0236833
:103930005A1C22601970CFE72246284600F01EF973
:103940000130C9D1E9E723680A205A1C22601870A7
:10395000E5E700BF80500008A05000086050000854
:10396000024B01461868FFF79FBF00BF0C00002004
:103970000EB400B59CB01DAB029006906FF00041F4
:10398000094807910491094953F8042B05910068EF
:10399000019302A900F0B0FC029B00221A701CB037
:1039A0005DF804EB03B070470C0000200802FFFF35
:1039B000134B2DE9F0411D68AC6D06460F46B4B9B6
:1039C000502000F07DFBA865C0E90044C0E9024436
:1039D000C0E90444C0E90A44C0E90C44C0E90E440B
:1039E000C0E91044C0E91244846104774462AA6DBE
:1039F000394630460123BDE8F04100F003B800BF6E
:103A00000C000020F0B518B9106808B9F0BD2046C8
:103A100004460F4614F8015B17F8016B1EB96DB927
:103A200015602846F2E7B542F6D1002BEFD11460BD
:103A30000370EBE72B460DE026B91C4623460F46E4
:103A400013F8015B17F8016BB542F5D1002DF1D0E9
:103A5000002121701360D9E72DE9F047804689469F
:103A600092461E460F463D46089815F8014B00F059
:103A7000BFFA2044437813F0080332D12D2C32D101
:103A80007C78BD1C0122002E5DD0102E09D1302C77
:103A900007D12B7803F0DF03582B4FD16C78102619
:103AA0000235002A14BF4FF000416FF0004100279B
:103AB000B1FBF6FC384606FB1C1EA4F13003092BB3
:103AC00017D81C46A64223DD7B1C07D084451CD397
:103AD00001D1A64519DB00FB0640012715F8014B73
:103AE000EBE72F46BFE72B2C04BFBD1C7C781A46A2
:103AF000C9E7A4F14103192B01D8373CE2E7A4F14F
:103B00006103192B04D8573CDCE74FF0FF37E5E79A
:103B10007B1C08D12223C8F800300846BAF1000FF8
:103B200007D1BDE8F08702B14042BAF1000FF8D0EA
:103B30000FB105F1FF39CAF80090F2E73024002EEA
:103B4000AFD10826ADE7302CA3D00A26A9E70000A4
:103B5000084B37B51C68084D236A002B08BF2B465D
:103B6000009313460A4601462046FFF775FF03B04F
:103B700030BD00BF0C00002070000020F8B50E46DC
:103B80001446054618B183690BB900F0A7F9214B1B
:103B90009C422AD16C68A369A360A3891A072ED519
:103BA000236963B323692068C01A6369F6B283424C
:103BB000374604DC2146284600F026F928BBA368D6
:103BC000013BA36023685A1C22601E7063690130A8
:103BD000834204D0A389DB0719D50A2E17D12146C9
:103BE000284600F011F990B10FE00B4B9C4201D137
:103BF000AC68D0E7094B9C4208BFEC68CBE7214694
:103C0000284600F00DF80028CCD04FF0FF3738469A
:103C1000F8BD00BF80500008A050000860500008A8
:103C2000324B70B51D6806460C4625B1AB6913B919
:103C3000284600F053F92E4B9C420FD16C68B4F922
:103C40000C309AB215072CD4D00611D40922326058
:103C500043F04003A3814FF0FF303EE0254B9C42F0
:103C600001D1AC68EBE7244B9C4208BFEC68E6E767
:103C7000510712D5616B41B104F14403994202D05E
:103C8000304600F037FA00236363A38923F024034E
:103C9000A3810023636023692360A38943F00803A1
:103CA000A38123694BB9A38903F42073B3F5007F83
:103CB00003D02146304600F0C3F9A28912F0010377
:103CC0000CD00023A36063695B42A361236953B9ED
:103CD000B4F90C3013F08000BAD170BD920758BF10
:103CE0006369A360F2E70020F7E700BF0C00002043
:103CF00080500008A0500008605000088A892DE913
:103D0000F041054610070C4658D44B68002B05DCE3
:103D10000B6C002B02DC0020BDE8F081E66A002E6F
:103D2000F9D0002312F480522F68216A2B6032D020
:103D3000606DA3895A0705D56368C01A636B0BB120
:103D4000236CC01A00230246E66A216A2846B0475F
:103D5000431CA38906D129681D2948D8294ACA408D
:103D6000D60744D500226260D9042269226004D5B6
:103D7000421C01D12B6803B96065616B2F6000297B
:103D8000C9D004F14403994202D0284600F0B2F9A8
:103D900000206063C0E701232846B047411CC8D11A
:103DA0002B68002BC5D01D2B01D0162B01D12F6005
:103DB000B1E7A38943F04003A381ADE70F69002F6A
:103DC000A9D093070E6808BF4B690F6018BF002386
:103DD000A6EB07088B60B8F1000F9CDD43463A461E
:103DE000216AA66A2846B047002806DCA38943F06A
:103DF0004003A3814FF0FF308EE70744A8EB000893
:103E0000E9E700BF0100402038B50B6905460C46C4
:103E1000DBB118B183690BB900F060F80C4B9C4220
:103E200009D16C68B4F90C307BB121462846BDE855
:103E30003840FFF763BF074B9C4201D1AC68F1E704
:103E4000054B9C4208BFEC68ECE7002038BD00BF82
:103E500080500008A050000860500008002310B5F2
:103E60000446C0E90033836081814366C281C0E9B2
:103E700004338361194608225C30FFF7F4FC054BDC
:103E80006362054BA362054BE362054B2462236327
:103E900010BD00BF994A0008BB4A0008F34A000859
:103EA000174B0008014900F085B800BF093E000823
:103EB00070B54A1E682555430E4605F1740100F0A1
:103EC00067F9044640B10021C0E900160C30A0603B
:103ED00005F16802FFF7C7FC204670BD836910B585
:103EE000044633BBC0E912330365124B124A1B6808
:103EF0008262984204BF0123836100F01FF8606072
:103F0000204600F01BF8A060204600F017F80022C1
:103F1000E06004216068FFF7A1FF01220921A06889
:103F2000FFF79CFF02221221E068FFF797FF0123B1
:103F3000A36110BD5C500008A53E0008F8B51B4BFE
:103F40001E68B369074613B93046FFF7C7FF483606
:103F5000D6E90134013B03D5336833B13668F7E75E
:103F6000B4F90C506DB16834F4E704213846FFF71A
:103F70009FFF30600028F1D10C233B6004462046AF
:103F8000F8BD0B4B6566C4E90055A560C4E903356F
:103F9000C4E905550822294604F15C00FFF763FCDB
:103FA000C4E90D55C4E91255E9E700BF5C500008AB
:103FB0000100FFFF2DE9F8438046894600F14804DF
:103FC000002614B93046BDE8F883D4E90175013FF5
:103FD00001D52468F5E7AB89012B07D9B5F90E3077
:103FE000013303D029464046C84706436835EEE70B
:103FF000D0F8EC00704770B50E46B1F90E100029EC
:1040000096B014461D4607DA00232B60B3891A06C2
:1040100010D44FF480630EE06A4600F0AFFD002834
:10402000F2DB019A02F47042A2F500535A425A415F
:104030002A60EEE740230020236016B070BD000028
:104040008B8973B59D0706460C4607D504F14703D7
:10405000236023610123636102B070BD01AB6A4636
:10406000FFF7C9FF00990546304600F091F848B9BE
:10407000B4F90C309A05EFD423F0030343F00203A4
:10408000A381E3E70D4BB362A389206043F0800373
:10409000A381009B6361019B20615BB1B4F90E10A9
:1040A000304600F07DFD28B1A38923F0030343F0DF
:1040B0000103A381A3891D43A581CDE7A53E000887
:1040C000024B0146186800F063B800BF0C000020E6
:1040D00082B001B901A942B14BB113780B601278DB
:1040E000101C18BF012002B070471046FBE76FF0AC
:1040F0000100F8E738B50546002945D051F8043CE1
:104100000C1F002BB8BFE41800F077FD1F4A13689E
:10411000104633B9636014602846BDE8384000F0AB
:104120006DBDA3420CD921686218934204BF1A687E
:104130005B68636004BF521822600460ECE71346BA
:104140005A680AB1A242FAD919685818A0420BD18C
:1041500020680144581882421960DDD11068526805
:104160005A6001441960D7E702D90C232B60D3E7CA
:10417000206821188A4204BF11685268626004BF37
:10418000091821605C60C7E738BD00BF000200204D
:1041900070B5CD1C25F0030508350C2D38BF0C2556
:1041A000002D064601DBA94203D90C233360002011
:1041B00070BD00F022FD214A1468214691B9204CBF
:1041C00023681BB9304600F057FC20602946304672
:1041D00000F052FC431C24D10C233360304600F025
:1041E0000DFDE4E70B685B1B18D40B2B0FD90B609C
:1041F000CD50CC18304600F001FD04F10B00231D1A
:1042000020F00700C31AD3D05A42E250D0E78C42C4
:104210004B6816BF636013600C46EBE70C464968B9
:10422000CCE7C41C24F00304A04205D0211A304678
:1042300000F022FC0130CFD02560DBE70002002037
:10424000040200202DE9F0478E689E4282460C460B
:104250009046994637D88A8912F4906F31D02568F4
:1042600009696F1A6569022305EB450595FBF3F5AE
:1042700009F101033B449D4238BF1D46530530D52B
:104280002946FFF785FF064650B90C23CAF80030CF
:10429000A38943F04003A3814FF0FF30BDE8F087CE
:1042A0003A46216900F09EFCA38923F4906343F011
:1042B0008003A381266165613E44ED1B2660A560F5
:1042C0004E464E4500D94E46324641462068FFF7DD
:1042D000B1FAA3689B1BA36023681E4426600020DC
:1042E000DCE72A4600F08BFC06460028E2D1216973
:1042F0005046FFF7FFFEC8E72DE9F04F1D468B89BA
:104300001F069DB080460C4616460FD50B696BB94B
:104310004021FFF73DFF2060206128B90C23C8F839
:1043200000304FF0FF30C8E0402363610023099361
:1043300020238DF8293030238DF82A3003954FF053
:10434000010B37463D4615F8013B0BB1252B3ED1FD
:10435000B7EB060A0BD05346324621464046FFF7DC
:1043600071FF013000F0A480099B534409933B780E
:10437000002B00F09D8000234FF0FF32CDE9052394
:10438000049307938DF853301A932F46052217F89C
:10439000011B5048FBF73CFF049BD0B9D90644BF32
:1043A00020228DF853201A0744BF2B228DF853206A
:1043B0002A782A2A15D0079A2F4600200A2539463E
:1043C00011F8013B303B092B4DD9B8B10FE02F4616
:1043D000B8E7404A801A0BFA00F0184304903D46B3
:1043E000D3E7039A111D12680391002A01DB07929B
:1043F00004E0524243F00203079204933B782E2BD1
:104400000CD17B782A2B33D1039B1A1D1B68039296
:10441000002BB8BF4FF0FF33023705932E4D39788C
:1044200003222846FBF7F4FE38B14023401B03FA71
:1044300000F0049B034301370493397827488DF833
:10444000281006227E1CFBF7E3FE002838D0244B00
:1044500013BB039B073323F0070308330393099B24
:104460004B4409936DE705FB023201200F46A6E796
:1044700000230137059319460A25384610F8012B09
:10448000303A092A03D9002BC8D00591C6E705FBAD
:10449000012101230746F0E703AB00932246114BAD
:1044A00004A94046AFF30080B0F1FF3F8146D6D16A
:1044B000A3895B063FF535AF09981DB0BDE8F08FC5
:1044C00003AB00932246074B04A9404600F0C2F913
:1044D000EAE700BFCA500008D0500008D4500008D6
:1044E00000000000454200089368013B002B10B417
:1044F000936008DA9469A34201DB0A2903D15DF8CD
:10450000044BFFF73BBB1368581C1060197008463A
:104510005DF8044B7047F8B506460F461446D518AB
:10452000AC4201D1002007E03A4614F8011B3046A6
:10453000FFF7DAFF431CF3D1F8BD00002DE9F04F7F
:104540000C469DB017461D46064618B183690BB947
:10455000FFF7C4FC7C4B9C4258D17468A3891807B0
:104560005ED52369002B5BD00023099320238DF8AF
:10457000293030238DF82A3003954FF0010BB846CF
:10458000454615F8013B0BB1252B54D1B8EB070A72
:104590000BD053463A4621463046FFF7BCFF013068
:1045A00000F0C280099B5344099398F80030002B17
:1045B00000F0BA8000234FF0FF32CDE905230493C9
:1045C00007938DF853301A93A846052218F8011B5B
:1045D0005E48FBF71DFE049B78BBD90644BF202232
:1045E0008DF853201A0744BF2B228DF853202A78C8
:1045F0002A2A2AD0079AA84600200A25414611F8FF
:10460000013B303B092B69D960B324E0504B9C42FD
:1046100001D1B468A2E74F4B9C4208BFF4689DE704
:1046200021463046FFF7FCFA00289DD04FF0FF30BE
:104630001DB0BDE8F08FA846A2E7444A801A0BFAE5
:1046400000F0184304904546BEE7039A111D126816
:104650000391002A01DB079204E0524243F0020377
:104660000792049398F800302E2B0ED198F8013061
:104670002A2B38D1039B1A1D1B680392002BB8BF4D
:104680004FF0FF3308F102080593334D98F80010FE
:1046900003222846FBF7BCFD40B14023401B03FA30
:1046A00000F0049B034308F10108049398F80010FC
:1046B0002A488DF82810062208F10107FBF7A8FD0B
:1046C000002837D0264B1BBB039B073323F007037F
:1046D00008330393099B4B44099350E705FB0232CF
:1046E000012088468AE7002308F10108059319464E
:1046F0000A25404610F8012B303A092A03D9002B2D
:10470000C3D00591C1E705FB012101238046F0E7F5
:1047100003AB00932246134B04A93046AFF300804D
:10472000B0F1FF3F8146D5D1A3895B063FF57EAF4F
:1047300009987DE703AB009322460A4B04A9304653
:1047400000F088F8ECE700BF80500008CA5000086D
:10475000A050000860500008D0500008D450000855
:1047600000000000174500082DE9F04791461F465C
:104770008A680B69DDF820809342B8BF1346C9F8F8
:10478000003091F8432006460C4612B10133C9F8B7
:1047900000302368990642BFD9F800300233C9F8C7
:1047A0000030256815F0060507D104F1190AE36801
:1047B000D9F800209B1AAB4228DC94F843302268D9
:1047C000003318BF012392062DD404F14302394669
:1047D0003046C047013020D02368E568D9F8002072
:1047E00003F00603042B08BFAD1AA36822690CBFAF
:1047F00025EAE57500259342C4BF9B1AED184FF0DA
:1048000000091A344D451AD1002008E00123524610
:1048100039463046C047013003D14FF0FF30BDE884
:10482000F0870135C3E7E1185A1C302081F84300B6
:10483000224494F8451082F843100233C5E701235F
:10484000224639463046C0470130E6D009F1010919
:10485000D8E700002DE9F04301F1430C0C46097E36
:1048600085B06E291746064698460C9A00F0B3802C
:1048700022D8632936D00AD8002900F0B9805829F7
:1048800000F0838004F1420584F8421032E064298C
:1048900001D06929F6D120681368050603F10401E7
:1048A0002AD51B681160002B03DA2D225B4284F8A5
:1048B00043206F480A2239E0732900F09D8008D810
:1048C0006F2920D07029DDD1236843F020032360B5
:1048D00003E0752917D07829D4D1782384F845309E
:1048E000644855E01368191D1B68116004F1420506
:1048F00084F8423001238CE01B68116010F0400FF7
:1049000018BF1BB2CFE713682568181D1060280672
:1049100001D51B6802E06806FBD51B8854486F2947
:1049200014BF0A220822002184F843106568A5609C
:10493000002DC0F29580216821F004012160002B38
:104940003DD1002D40F08E806546082A0BD12368AA
:10495000DB0708D5236962689A42DEBF302305F879
:10496000013C05F1FF35ACEB05032361CDF8008078
:104970003B4603AA21463046FFF7F6FE01304DD1F3
:104980004FF0FF3005B0BDE8F083394884F845109A
:10499000136821681D1D1B6815600A060BD5CA0720
:1049A00044BF41F0200121601BB9226822F020029F
:1049B00022601022B7E74D0648BF9BB2EFE765467D
:1049C000B3FBF2F102FB1133C35C05F8013D0B466A
:1049D0000029F5D1B9E7136825686169181D1060D1
:1049E00028061B6801D5196002E06A06FBD519800C
:1049F000002323616546B9E71368191D11601D681E
:104A0000626800212846FBF703FC08B1401B606088
:104A100063682361002384F84330A7E723692A46AB
:104A200039463046C0470130AAD023689B0713D4CB
:104A3000E068039B9842B8BF1846A3E701234A46A3
:104A400039463046C04701309AD00135E368039AB1
:104A50009B1AAB42F2DCEBE7002504F11909F5E7FC
:104A6000002BACD1037884F8423004F142056CE7A6
:104A7000DB500008EC50000838B5064C0023054612
:104A800008462360FEF72EFE431C02D1236803B1C3
:104A90002B6038BDD42F012010B50C46B1F90E1093
:104AA00000F0D4F80028ABBF636DA3891B1823F472
:104AB0008053ACBF6365A38110BD2DE9F0411F4653
:104AC0008B89DB0505460C46164605D502230022D8
:104AD000B1F90E1000F074F8A389B4F90E1023F4A4
:104AE0008053A38132463B462846BDE8F04100F0A2
:104AF00023B810B50C46B1F90E1000F061F8431C54
:104B0000A38915BF606523F4805343F48053A381C8
:104B100018BFA38110BDB1F90E1000F01FB849B144
:104B2000FF2A85BF8A2303600A704FF0FF3098BFC9
:104B3000012070470846704738B5074C05460846BF
:104B40001146002222601A46FEF7BEFD431C02D128
:104B5000236803B12B6038BDD42F012038B5064C33
:104B60000023054608462360FEF7DAFD431C02D108
:104B7000236803B12B6038BDD42F012038B5074C12
:104B800000230546084611462360FEF7CCFD431C72
:104B900002D1236803B12B6038BD00BFD42F0120A0
:104BA00038B5064C0023054608462360FEF7C0FDD5
:104BB000431C02D1236803B12B6038BDD42F0120E0
:104BC00038B5074C054608461146002222601A46B1
:104BD000FEF7B0FD431C02D1236803B12B6038BD42
:104BE000D42F012010B5431E0A44914200D110BDBC
:104BF00011F8014B03F8014FF7E770477047F8B51C
:104C0000074614460E4621B91146BDE8F840FFF7A5
:104C1000BFBA22B9FFF76EFA25462846F8BD00F064
:104C200027F8A0420FD221463846FFF7B1FA0546D1
:104C30000028F2D031462246FFF7D4FF31463846ED
:104C4000FFF758FAE9E73546E7E7000038B5074CC3
:104C5000054608461146002222601A46FEF726FD48
:104C6000431C02D1236803B12B6038BDD42F01202F
:104C700051F8043C181F002BBCBF0B58C0187047DC
:104C8000F8B500BFF8BC08BC9E467047F8B500BF39
:084C9000F8BC08BC9E46704709
:104C9800000610160006101611803A0412001713A9
:104CA800180132B6193F1A7B03010C003E00703A16
:104CB80071B5721173F0A20215007A187B047C0991
:104CC8007D187E387F47805681668274837F848909
:104CD800859A86A987C488DB89EE13E001500268AB
:104CE800000010000D4014481507AB08246025503B
:104CF80026E39F78A068A103A6D8A7D8A8F0A99012
:104D0800AA1413E50E610F4B16021E2721022291E9
:104D18002907330B350B371D3871392A3C784D403C
:104D28004E2069004E2074108D4F8E008F00900029
:104D38009100926696009A80B084B10CB20EB3824C
:104D4800B80A431444F045414666472A483E598DFF
:104D58005A8E5B535C835D4F5E0E6C0A6D556E1107
:104D68006F9E629063306411650066059411951812
:104D78006A400140024013E74F80508051005222A0
:104D8800535E5480589E41083F00750376E14C00FD
:104D980077003DC24B09C9604138563A34113B0A85
:104DA800A48896009730982099309A849B299C0370
:104DB8009D989E3F78047901C8F0790FC800791052
:104DC800C87E790AC880790BC801790CC80F790D9B
:104DD800C8207909C8807902C8C07903C840790514
:104DE800C83079262D002E0011406B0A2A002B00AE
:104DF8002D002E00CA00926693003B0ACF8C9D9826
:104E08009E7FA502AB03150212148C00040040100B
:104E180014484FB350B35100523D53A754E43DC01A
:104E28001502FFFF12800C0840D0B08471BA102020
:104E3800000000000000000000000000000000006A
:104E4800000000000000000000000000000000005A
:104E5800000000000000000000000000000000004A
:104E6800000000000000000000000000000000003A
:104E7800000000000000000000000000000000002A
:104E8800000000000000000000000000000000001A
:104E9800000000000000000000000000000000000A
:104EA80000000000000000000000000000000000FA
:104EB80000000000000000000000000000000000EA
:104EC80000000000000000000000000000000000DA
:104ED80000000000000000000000000000000000CA
:104EE80000000000000000000000000000000000BA
:104EF80000000000000000000000000000000000AA
:104F08000000000000000000000000000000000099
:104F18000000000000000000000000000000000089
:104F28000000000000000000000000000000000079
:104F38000000000000000000000000000000000069
:104F48000000000000000000000000000000000059
:104F58000000000000000000000000000000000049
:104F68000000000000000000000000000000000039
:104F78000000000000000000000000000000000029
:104F88000000000000000000000000000000000019
:104F98000000000000000000000000000000000009
:104FA80000000000000000000000000000000000F9
:104FB80000000000000000000102030406070809C1
:104FC80000000000010203047265673A2025642C82
:104FD8002076616C3A2025640A0D00006265666FD0
:104FE8007265207265673A2025642C2076616C3AD8
:104FF8002025640A0D0000006166746572207265E0
:10500800673A2025642C2076616C3A2025640A0DC5
:10501800000000004552524F5221000074696D2073
:10502800736574757020646F6E6520360D0000001E
:105038005B25642C00000000253038782C00000027
:1050480025640D0A0000000074696D36696E740DE0
:105058000000000010000020000000000000000018
:105068000000000000000000000000000000000038
:105078000000000000000000000000000000000028
:105088000000000000000000000000000000000018
:105098000000000000000000000000000000000008
:1050A80000000000000000000000000000000000F8
:1050B80000000000000000004300504F5349580012
:1050C8002E00232D302B2000686C4C006566674548
:1050D8004647003031323334353637383941424368
:1050E8004445460030313233343536373839616219
:1050F80063646566000020202020202020202028CE
:105108002828282820202020202020202020202077
:1051180020202020202088101010101010101010AF
:1051280010101010101004040404040404040404EF
:10513800101010101010104141414141410101016E
:105148000101010101010101010101010101010147
:105158000110101010101042424242424202020254
:105168000202020202020202020202020202020217
:1051780002101010102000000000000000000000C5
:105188000000000000000000000000000000000017
:105198000000000000000000000000000000000007
:1051A80000000000000000000000000000000000F7
:1051B80000000000000000000000000000000000E7
:1051C80000000000000000000000000000000000D7
:1051D80000000000000000000000000000000000C7
:1051E80000000000000000000000000000000000B7
:0851F8000000000000000000AF
:08520000E0B0FF7F0100000097
:04520800F5010008A4
:04520C00D1010008C4
:1052100001000000100000000024F4001000002035
:105220000000000080500008A050000860500008F6
:10523000000000000000000000000000000000006E
:10524000000000000000000000000000000000005E
:10525000000000000000000000000000000000004E
:10526000000000000000000000000000000000003E
:10527000000000000000000000000000000000002E
:1052800043000000000000000000000000000000DB
:10529000000000000000000000000000000000000E
:1052A00043000000000000000000000000000000BB
:1052B00000000000000000000000000000000000EE
:1052C000430000000000000000000000000000009B
:1052D00000000000000000000000000000000000CE
:1052E000430000000000000000000000000000007B
:1052F00000000000000000000000000000000000AE
:10530000430000000000000000000000000000005A
:10531000000000000000000000000000000000008D
:10532000430000000000000000000000000000003A
:10533000000000000000000000000000000000006D
:10534000430000000000000000000000000000001A
:10535000000000000000000000000000000000004D
:105360001F4B0008D140000800000000FD5000085D
:10537000C8500008CF500008CF500008CF50000898
:10538000CF500008CF500008CF500008CF50000881
:10539000CF500008CF500008FFFFFFFFFFFFFFFFC7
:1053A000FFFFFFFFFFFF0000010041534349490099
:1053B00000000000000000000000000000000000ED
:1053C0000000000000000000000041534349490074
:1053D00000000000000000000000000000000000CD
:0C53E000000000000000000000000000C1
:040000050800378533
:00000001FF
